:020000040000FA
:100000008316003086000E30850083122030AA004F
:100010000130AB000230AC000330AD000430AE0064
:10002000E4204030B1000430B2000330B3000230AD
:10003000B4000130B5000030A900E330A300003067
:10004000B6000030B7000130B8001821291A3C234F
:10005000361830283718462838197328782025286C
:100060000030BD004330A3007820B420FF30A3004F
:100070007820B4204330A3007820B420FF30A300C0
:100080007820B4203D191B28BD0A32280030A90071
:100090008730A3000030BE000030BF000030C00039
:1000A0001821291AA2233E1859283F1866287820BB
:1000B00050288930A30078208F20A130A300782019
:1000C0008F20A330A30078208F201B289730A30017
:1000D00078208C208730A30078208C20A330A300C8
:1000E00078208C201B28E330A3007820CC201B280C
:1000F000230886002F187E209620080001308500F6
:1001000029189B20A918A0202919A520A919AA20DF
:1001100096200030850008000430BD00D120013059
:10012000BD00D1200230BD00D12008000430B9004C
:100130000230BA00AF280430B9000830BA00AF2846
:100140000430B9000630BA00AF280430B9000430DA
:10015000BA00AF280430B9000230BA00AF28B90B9A
:10016000AF28BA0BAF280800FF30B9003030BA0012
:100170000230BB00B90BBA28BA0BBA28BB0BBA289D
:100180000800B420B420B420B4200800C120C1204D
:10019000C120C120C1200800C620C620C620C6201C
:1001A00008000230BB000230BC00013085003D1861
:1001B000AA20BD18A5203D19A02000308500BB0B4A
:1001C000D528BC0BD52808000130890083160818F3
:1001D00079230814831208082A06031DF02008005A
:1001E000013089002A0888000A21023089002B0882
:1001F00088000A21033089002C0888000A21043075
:1002000089002D0888000A21053089002E08880001
:100210000A210800831608158B1355308900AA306F
:10022000890088148818122908118B178312080076
:100230000230860085183D290519662985198F2900
:10024000043086008518B8290519E12985190A2A7C
:10025000083086008518332A05195C2A8519852AF5
:10026000103086008518AE2A0519DF2A8519082B5B
:100270002F1C39230030AF0008002F180800013070
:10028000AF0029184A29A918512929195829A9194B
:100290005F2908000130A5000230A900BB30A3008F
:1002A00008000130A6000430A900B930A3000800FE
:1002B0000130A7000830A9003930A3000800013040
:1002C000A8001030A9002930A30008002F1808004A
:1002D0000130AF0029187329A9187A292919812911
:1002E000A919882908000230A5000230A900BB30F6
:1002F000A30008000230A6000430A900B930A30012
:1003000008000230A7000830A9003930A300080017
:100310000230A8001030A9002930A30008002F18CF
:1003200008000130AF0029189C29A918A329291910
:10033000AA29A919B12908000330A5000230A90093
:10034000BB30A30008000330A6000430A900B93078
:10035000A30008000330A7000830A9003930A3002B
:1003600008000330A8001030A9002930A3000800BD
:100370002F1808000130AF002918C529A918CC2969
:100380002919D329A919DA2908000430A500023057
:10039000A900BB30A30008000430A6000430A90067
:1003A000B930A30008000430A7000830A900393094
:1003B000A30008000430A8001030A9002930A300D1
:1003C00008002F1808000130AF002918EE29A918DD
:1003D000F5292919FC29A919032A08000530A500C7
:1003E0000230A900BB30A30008000530A60004308D
:1003F000A900B930A30008000530A7000830A90003
:100400003930A30008000530A8001030A9002930B9
:10041000A30008002F1808000130AF002918172A80
:10042000A9181E2A2919252AA9192C2A08000630DC
:10043000A5000230A900BB30A30008000630A600CA
:100440000430A900B930A30008000630A700083026
:10045000A9003930A30008000630A8001030A90018
:100460002930A30008002F1808000130AF00291818
:10047000402AA918472A29194E2AA919552A0800DD
:100480000730A5000230A900BB30A30008000730E8
:10049000A6000430A900B930A30008000730A70067
:1004A0000830A9003930A30008000730A800103038
:1004B000A9002930A30008002F1808000130AF0060
:1004C0002918692AA918702A2919772AA9197E2AB0
:1004D00008000830A5000230A900BB30A3000800C6
:1004E0000830A6000430A900B930A3000800083085
:1004F000A7000830A9003930A30008000830A80080
:100500001030A9002930A30008002F18080001307E
:10051000AF002918922AA918992A2919A02AA919DD
:10052000A72A08000930A5000230A900BB30A300AB
:1005300008000930A6000430A900B930A300080063
:100540000930A7000830A9003930A300080009309D
:10055000A8001030A9002930A30008002F180800B7
:100560000130AF002918BC2AA918C32A2919CA2AA0
:10057000A919D12AD82A08004030A5000230A900C4
:10058000BB30A30008004030A6000430A900B930F9
:10059000A30008004030A7000830A9003930A300AC
:1005A00008004030A8001030A9002930A30008003E
:1005B0004030A4000130A900BF30A30008002F186C
:1005C00008000130AF002918EC2AA918F32A2919CC
:1005D000FA2AA919012B08000030A5000230A90051
:1005E000BB30A30008000030A6000430A900B930D9
:1005F000A30008000030A7000830A9003930A3008C
:1006000008000030A8001030A9002930A30008001D
:100610002F1808000130AF002918162BA9181D2B20
:100620002919242BA9192B2B322B08002030A500C7
:100630000230A900BB30A30008002030A60004301F
:10064000A900B930A30008002030A7000830A90095
:100650003930A30008002030A8001030A90029304C
:10066000A30008002030A4000130A900BF30A3007F
:100670000800E330A3000800B80A0130890083169F
:10068000081879230814831208082406031D7C2BFC
:100690000230890083160818792308148312080889
:1006A0002506031D952B033089008316081879232E
:1006B0000814831208082606031D952B04308900B0
:1006C0008316081879230814831208082706031DC7
:1006D000952B053089008316081879230814831296
:1006E00008082806031D952B0130B8000130B6001C
:1006F000952B0818792B080024083106031D952B2B
:1007000025083206031D952B26083306031D952B5D
:1007100027083406031D952B28083506031D952B45
:100720000130B8000130B700952B0030A90000302F
:10073000A4000030A5000030A6000030A700003063
:10074000A80008000030A9004018B52BA41E08001E
:100750002408AA002508AB002608AC002708AD0035
:100760002808AE000130C000080024082A06031D36
:10077000CD2B25082B06031DCD2B26082C06031D8B
:10078000CD2B27082D06031DCD2B28082E06031D73
:10079000CD2B0130BE00F02008000130BF00080062
:0407A00000340034ED
:02400E00F13F80
:00000001FF
